S01300005247422D436F6E74726F6C2E7372656328
S1130000D6C00000F4C00000F2C00000F0C0000040
S1130010EEC00000ECC00000EAC00000E8C0000030
S1130020E6C00000E4C00000E2C00000E0C0000040
S1130030DEC00000DCC00000DAC00000D8C0000050
S1130040D6C00000D4C00000D2C00000D0C0000060
S1130050CEC00000CCC00000CAC00000C8C0000070
S1130060C6C00000C4C00000C2C00000C0C0000080
S1130070BEC00000BCC00000BAC00000B8C0000090
S1130080B6C00000B4C00000B2C00000B0C00000A0
S1130090AEC00000ACC00000AAC00000A8C00000B0
S11300A0A6C00000A4C00000A2C00000A0C00000C0
S11300B09EC000009CC000009AC0000098C00000D0
S11300C096C0000094C0000092C0000090C00000E0
S11300D08EC000008CC000008AC0000088C00000F0
S11300E086C00000150118011B011E012101240115
S11300F027012A012D017E017E017E017E017E0100
S11301007E017E017E017E017E017E017E017E01F3
S11301107E017E017E017E017E017E017E017E01E3
S11301207E017E017E017E017E017E017E017E01D3
S11301307E017E017E017E017E017E017E017E01C3
S11301407E017E0130013301360139013C013F015A
S11301504201450148014B014E015101540157012F
S11301605A015D0160016301660169016C016F015F
S11301707201750178017B018B019801A701B80117
S1130180C901DA01EB01FA010D021E022F023E023F
S11301904D026002710284029302A202B302C602FB
S11301A0D9026364696E6F70737578585B001124AB
S11301B01FBECFEFD1E2DEBFCDBF00E00CBF12E027
S11301C0A0E0B2E0ECE2F9E100E00BBF02C007906E
S11301D00D92A033B107D9F722E0A0E3B2E001C049
S11301E01D92A733B207E1F70FD20C94940C08CFF9
S11301F0181619066CF420E030E0EFE9FFE03197BF
S1130200F1F700C000002F5F3F4F82179307A9F753
S1130210089590E0FC01F197EA34F10508F06EC00E
S11302208827EE58FF4F8F4F6EC581E090E0089508
S113023082E090E0089583E090E0089584E090E007
S1130240089585E090E0089586E090E0089587E0C1
S113025090E0089588E090E0089589E090E00895A2
S11302608AE090E008958BE090E008958CE090E0BF
S113027008958DE090E008958EE090E008958FE079
S113028090E0089580E190E0089581E190E0089580
S113029082E190E0089583E190E0089584E190E0A4
S11302A0089585E190E0089586E190E0089587E15E
S11302B090E0089588E190E0089589E190E0089540
S11302C08AE190E008958BE190E008958CE190E05C
S11302D008958DE190E008958EE190E008958FE116
S11302E090E0089580E290E0089581E290E008951E
S11302F082E290E0089583E290E0089580E090E047
S113030008958531910508F062C1FC018827E45401
S1130310FF4F8F4FF8C410928900109288001092FA
S11303209900109298001092A9001092A8000895C4
S11303308FEF90E090938900809388001092990049
S1130340109298001092A9001092A800089583E5D5
S113035090E0909389008093880084E090E09093EB
S11303609900809398001092A9001092A800089513
S113037086E990E090938900809388008CE090E077
S113038090939900809398001092A9001092A8006D
S1130390089582ED90E090938900809388008AE527
S11303A090E090939900809398001092A900109285
S11303B0A80008958FEF90E09093890080938800BF
S11303C08CE890E090939900809398001092A90093
S11303D01092A800089510928900109288008FEF5F
S11303E090E090939900809398001092A900109245
S11303F0A800089585E590E0909389008093880093
S11304008BE690E090939900809398008FE290E0BF
S11304109093A9008093A800089582E290E09093BD
S11304208900809388002BE830E030939900209372
S113043098009093A9008093A800089582E390E027
S113044090938900809388002DEC30E030939900DC
S1130450209398009093A9008093A8000895109287
S11304608900109288008FEF90E090939900809318
S113047098009093A9008093A80008951092890091
S11304801092880010929900109298008FEF90E0DB
S11304909093A9008093A800089588E190E0909338
S11304A089008093880084E790E09093990080937A
S11304B098008DEC90E09093A9008093A800089593
S11304C089E190E09093890080938800909399004B
S11304D08093980080E790E09093A9008093A8000F
S11304E0089587E490E090938900809388008CE3DA
S11304F090E090939900809398008BE890E090931B
S1130500A9008093A80008958FEF90E0909389004C
S11305108093880010929900109298009093A900FB
S11305208093A80008958FEF90E0909389008093C2
S1130530880090939900809398009093A9008093E9
S1130540A80008958FEF90E090938900809388002D
S11305502BEB30E030939900209398009093A900FE
S11305608093A800089586ED90E09093890080938D
S1130570880086E690E090939900809398008FEF2E
S113058090E09093A9008093A80008958FEB90E0E9
S113059090938900809388008EE390E09093990073
S11305A0809398008FEF90E09093A9008093A80027
S11305B008958BE890E090938900809388001092CE
S11305C09900109298009093A9008093A800089530
S11305D08631910569F01CF4459739F012C08731D2
S11305E0910549F0489751F00CC081E090E00895DE
S11305F082E090E0089583E090E0089584E090E044
S1130600089580E090E00895CF93DF931F92CDB7D3
S1130610DEB783E074D1C12CEE24E39400E021E042
S113062040E855E260E070E083E071D193E8909394
S1130630800082E0809381009093900080939100E9
S11306409093A0008093A10078948FEF84B98DB922
S1130650809301018EE092E09F938F935CD30F907F
S11306600F900F2EF5E04F2EF02D512CA12CB12C14
S113067066246394712CE12CF12CC12CD12C00E064
S113068010E00F2EF8EA2F2E312CF02D0F3F11051C
S113069009F034F40115110531F4E12CF12C03C0F7
S11306A0EE24E394F12C83E014D3882309F457C097
S11306B081E090E08C0F9D1F9F938F93E3E2F2E023
S11306C0FF93EF933BD389811F928F938DE192E047
S11306D09F938F9320D389819CDD4C019F928F93AC
S11306E086E292E09F938F9316D30FB6F894DEBF01
S11306F00FBECDBF91E08916910451F0E9E18E1649
S1130700910481F0F5E18F1691049CF4C12CD12C55
S1130710C401F7DD0F2EF5E04F2EF02D512CA12C46
S1130720B12C1DC00F2EFCE24F2EF02D55245394F6
S113073007C00F2EF5E04F2EF02D512CA12CB12C1B
S1130740C4014597049720F4C40142DF6C0107C03B
S113075029E18216910409F449C0C12CD12C82E00C
S1130760C816D104D9F02CF4E1E0CE16D10451F02E
S113077038C0F3E0CF16D104E9F024E0C216D10466
S113078029F12FC0E8E8F0E011830083E8E9F0E004
S113079011821082F1011182108223C0E8E8F0E096
S11307A011821082E8E9F0E011830083F1011182E3
S11307B0108217C0E8E8F0E011821082E8E9F0E066
S11307C011821082F101118300830BC0E8E8F0E08C
S11307D011830083E8E9F0E011830083F1011183C0
S11307E00083F1E0AF16B10491F402C0C12CD12C06
S11307F025E1621671041CF066246394712CC30114
S113080080DD8FEF681A780AAA24A394B12CE1142E
S1130810F10419F40F5F1F4F02C001501109842D18
S1130820952DE6DC33CFCF93C82F809130028230F0
S113083089F0833019F0813029F518C0CA3011F4D9
S11308408DE0F1DFE0E3F1E0808185FFFDCFC0932F
S1130850360123C0CA3011F48DE0E5DFE0EDF0E0AD
S1130860808185FFFDCFC093D60017C0CA3011F434
S11308708DE0D9DFE8ECF0E0808185FFFDCFC09307
S1130880CE000BC0CA3011F48DE0CDDFE0ECF0E017
S1130890808185FFFDCFC093C6008C2F90E0CF915F
S11308A00895BC0190913002923081F0933029F088
S11308B09130A9F0E0ECF0E01BC0E0E3F1E09081BE
S11308C09923ECF780913601AECF0895E0EDF0E086
S11308D090819923ECF78091D600A5CF0895E8EC98
S11308E0F0E090819923ECF78091CE009CCF08959D
S11308F090819923ECF78091C60095CF08958430B8
S113090018F48093300208951092300208952F92C3
S11309103F924F925F926F927F928F929F92AF928B
S1130920BF92CF92EF920F931F93CF93DF93CDB7E4
S1130930DEB72E970FB6F894DEBF0FBECDBFE1E34E
S1130940F2E0A0E0B2E0B183A083B383A2834115B7
S11309503BE453076105710509F499C1A8F44036D5
S113096039E053076105710509F483C1403C92E104
S113097059076105710509F479C1403B544061058B
S1130980710509F067C115C0411591EE590761055C
S1130990710509F450C1411532EC530731E0630786
S11309A0710551F0411556496105710509F052C1AF
S11309B045C132E896E05FC1813009F44EC038F099
S11309C0823009F493C0833009F4E3C06BC130E191
S11309D090E002C033E390E0E0ECF0E080818260DC
S11309E0808306C037E601C033E31092C00090E074
S11309F09093C5003093C400E0FA662460F8712C2B
S1130A00660C771C660C771C660C771C30E8039F19
S1130A108001112406298C2D817089831A82A98171
S1130A20BA810024B695A7950794B695A79507941F
S1130A30BA2FA02DA02B21702D871E868D859E8513
S1130A4082959295907F9827807F98278A2B809310
S1130A50C10086E08093C20025C181E030E105C079
S1130A6081E033E302C080E037E6882341F090E080
S1130A70E8ECF0E080818260808304C033E310926C
S1130A80C80090E09093CD003093CC00E0FA442469
S1130A9040F8512C440C551C440C551C440C551C5A
S1130AA090E8099F800111240429C0FAAA24A0F81F
S1130AB0B12C0024B694A7940794B694A7940794F1
S1130AC0BA2CA02CA02A20FB882480F8912C880C16
S1130AD0991C880C991C880C991C880C991C8A28D0
S1130AE08092C90086E08093CA00DCC081E030E1D6
S1130AF090E00DC081E033E390E009C080E037E688
S1130B0090E005C081E003C080E033E390E08823F7
S1130B1031F0E0EDF0E080818260808302C01092C9
S1130B20D0009093D5003093D4003E2D31703B8398
S1130B301C828B819C81880F991F880F991F880FB5
S1130B40991F30E8039F80011124082B8C2D81709C
S1130B508D831E828D819E810024969587950794AE
S1130B60969587950794982F802D802B20FB22241F
S1130B7020F8312C220C331C220C331C220C331C85
S1130B80220C331C282A2092D10086E08093D200C4
S1130B9089C081E030E190E00DC081E033E390E072
S1130BA009C080E037E690E005C081E003C080E042
S1130BB033E390E0882331F0E0E3F1E08081826068
S1130BC0808302C010923001909335013093340138
S1130BD09E2D91709F8318864F815885440F551F11
S1130BE0440F551F440F551F30E8039F8001112403
S1130BF0042B8C2D817089871A8649855A85002497
S1130C00569547950794569547950794542F402D2C
S1130C10402B21702B871C868B859C858295929511
S1130C20907F9827807F9827842B8093310186E0DA
S1130C308093320137C032E290E01DC0813009F464
S1130C400FCF08F4C7CE823009F454CF833009F4AF
S1130C50A4CF28C0813009F406CF08F4C3CE823073
S1130C6009F44CCF833009F49CCF1CC030EA91E0E6
S1130C7002C030E493E0813009F4FACE08F4ACCE3B
S1130C80823009F43FCF833009F48FCF0BC0813019
S1130C9009F4F4CE08F4A8CE823009F435CF8330B9
S1130CA009F485CF2E960FB6F894DEBF0FBECDBFE4
S1130CB0DF91CF911F910F91EF90CF90BF90AF90A4
S1130CC09F908F907F906F905F904F903F902F9068
S1130CD00895813051F028F0823059F0833069F062
S1130CE010C08091C000807808958091C8008078F9
S1130CF008958091D00080780895809130018078A3
S1130D00089580E00895EE0FFF1F881F8BBF0790A2
S1130D10F691E02D1994CF93DF93CDB7DEB7AE01F2
S1130D204A5F5F4FFA0161917191AF018091330283
S1130D309091340216D0DF91CF910895CF93DF9331
S1130D40CDB7DEB7AE014A5F5F4FFA016191719191
S1130D50AF018091310290913202B2D3DF91CF91F1
S1130D6008952F923F924F925F926F927F928F924B
S1130D709F92AF92BF92CF92DF92EF92FF920F9326
S1130D801F93CF93DF93CDB7DEB72B970FB6F894AD
S1130D90DEBF0FBECDBF6C017B018A01FC0117824F
S1130DA01682838181FFBFC1CE0101963C01F60109
S1130DB09381F70193FD859193FF81917F018823AE
S1130DC009F4ADC1853239F493FD859193FF819186
S1130DD07F01853221F4B60190E0F0D4E8CF912C64
S1130DE0212C312CFFE1F315D8F08B3279F038F453
S1130DF0803279F08332A1F4232D20611DC08D321D
S1130E0061F0803369F4232D216016C0832D826044
S1130E10382EE32DE4603E2E2AC0F32DF8601DC069
S1130E2037FC2DC020ED280F2A3040F08E32B9F463
S1130E3036FC75C1232D2064322E19C036FE06C03F
S1130E408AE0989E200D1124922E11C0EAE02E9E75
S1130E50200D1124222EF32DF0623F2E08C08C3673
S1130E6021F4832D8068382E02C0883641F4F701BE
S1130E7093FD859193FF81917F018111B3CF982FC9
S1130E809F7D9554933028F40C5F1F4F9FE3998303
S1130E900DC0833631F0833771F0833509F055C0C6
S1130EA020C0F801808189830E5F1F4F88248394BA
S1130EB0912C530112C02801F2E04F0E511CF8018D
S1130EC0A080B18036FE03C0692D70E002C06FEFD0
S1130ED07FEFC5012AD44C018201F32DFF773F2E09
S1130EE015C0280122E0420E511CF801A080B180F7
S1130EF036FE03C0692D70E002C06FEF7FEFC501BD
S1130F0009D44C01F32DF0683F2E820133FC19C043
S1130F10822D90E088169906A0F4B60180E290E054
S1130F204DD42A94F5CFF50137FC859137FE819194
S1130F305F01B60190E042D421102A9421E0821A84
S1130F4091088114910479F7E1C0843611F089364F
S1130F5039F5F80137FE07C0608171818281938180
S1130F600C5F1F4F08C060817181072E000C880B35
S1130F70990B0E5F1F4FF32DFF763F2E97FF09C08D
S1130F8090958095709561957F4F8F4F9F4FF06836
S1130F903F2E2AE030E0A30166D4882E861844C090
S1130FA0853731F4232D2F7EB22E2AE030E025C080
S1130FB0932D997FB92E8F36C1F018F4883579F0C6
S1130FC0AEC0803719F0883721F0A9C0E92FE0615D
S1130FD0BE2EB4FE0DC0FB2DF460BF2E09C034FE3E
S1130FE00AC0292F2660B22E06C028E030E005C0D2
S1130FF020E130E002C020E132E0F801B7FE07C092
S113100060817181828193810C5F1F4F06C0608172
S1131010718180E090E00E5F1F4FA30124D4882EDD
S11310208618FB2DFF773F2E36FE0DC0232D2E7F15
S1131030A22E891458F434FE0BC032FC09C0832D4F
S11310408E7EA82E05C0B82CA32C03C0B82C01C0DA
S1131050B92CA4FE0FC0FE01E80DF11D8081803380
S113106021F49A2D997EA92E09C0A2FE06C0B3943C
S1131070B39404C08A2D867809F0B394A3FC10C0FD
S1131080A0FE06C0B21480F4280C922C9B180DC04C
S1131090B21458F4B60180E290E090D3B394F8CF40
S11310A0B21418F42B1802C0982C212CA4FE0FC0E3
S11310B0B60180E390E082D3A2FE16C0A1FC03C077
S11310C088E790E002C088E590E0B6010CC08A2D64
S11310D0867851F0A1FE02C08BE201C080E2A7FC39
S11310E08DE2B60190E06AD3891430F4B60180E34E
S11310F090E064D39A94F8CF8A94F301E80DF11D3B
S11311008081B60190E05AD38110F6CF222009F4F1
S11311104ECEB60180E290E051D32A94F7CFF60187
S11311208681978102C08FEF9FEF2B960FB6F894BC
S1131130DEBF0FBECDBFDF91CF911F910F91FF9006
S1131140EF90DF90CF90BF90AF909F908F907F9063
S11311506F905F904F903F902F90089520FD09C0AD
S1131160FC0123FD05C022FF02C073836283518307
S11311704083089544FD17C046FD17C0AB01BC0170
S1131180DA01FB01AA0FBB1FEE1FFF1F1094D1F75A
S11311904A0F5B1F6E1F7F1FCB01BA01660F771FBB
S11311A0881F991F09C033E001C034E0660F771F20
S11311B0881F991F3150D1F7620F711D811D911D38
S11311C008950F931F93CF93DF938C01C801B8D276
S11311D0EC0197FD06C08BD2892BC1F7B801CE0173
S11311E029D3CE01DF91CF911F910F9108958F9252
S11311F09F92AF92BF92EF92FF920F931F93CF9360
S1131200DF938C01D62F7A01B22E9AD29C01332718
S11312102B32310531F02D32310559F48B2D806894
S1131220B82ED15011F480E061C0C80189D297FD75
S1131230FACFCB2DCD7F2B2D2073F9F48033E9F435
S1131240AA24AA94AD0E09F43EC0C80179D297FD30
S11312503AC09C012F7D33272835310541F4C264FF
S1131260D25089F1C8016CD297FF07C02CC0B6FEDA
S113127002C0C26001C0C261DA2D812C912C5401DC
S113128020ED280F283078F0C4FF03C0B801D2D273
S113129017C02A3040F0C6FFF9CF2F7D3FEE320F42
S11312A03630A0F727504C2FC501B40163DF4B0142
S11312B05C01C260D15051F0C80142D297FFE0CF27
S11312C0C1FD04C0B0CF812C912C5401C7FF08C0CC
S11312D0B094A09490948094811C911CA11CB11C86
S11312E02C2FB501A401C70139DF81E0DF91CF9133
S11312F01F910F91FF90EF90BF90AF909F908F90B0
S113130008955F926F927F928F929F92AF92BF9255
S1131310CF92DF92EF92FF920F931F93CF93DF93BD
S1131320CDB7DEB7A0970FB6F894DEBF0FBECDBF22
S11313305C01962E7A01F9018E010F5F1F4F68013F
S113134080E2D8011D928A95E9F7D50113968C9015
S113135080E090E0612C712C30E061E070E083FC6F
S1131360259183FE21918F01522E211103C080E02B
S113137090E090C02E3511F4009751F1432F50E0C6
S1131380481759073CF42D3559F12D3219F47720BB
S113139009F103C0772009F468C0452D46954695A8
S11313A04695D601A40FB11D452D47708B0102C08F
S11313B0000F111F4A95E2F7A8015C91452B4C934D
S11313C0651459F0561410F45394E7CF5A94E5CFAA
S11313D031E004C07724739401C0712C0196BFCF0F
S11313E0772019F08E8180628E83311103C08824A6
S11313F0839417C0F6019E012F5D3F4F8081809535
S113140081932E173F07D1F7F2CFE114F10429F0AD
S1131410D7018C93F70131967F019A94812C9920FE
S1131420E9F0C5018DD197FD17C0FC01FF2723E02A
S1131430F595E7952A95E1F7EC0DFD1D208130E047
S1131440AC014770552702C0359527954A95E2F7B8
S113145020FDDBCFB501EED1811089CFE114F10479
S113146011F0D7011C92C80115C0422F469546952C
S11314704695D601A40FB11D422F47708B0102C0BF
S1131480000F111F4A95E2F7A8015C91452B4C937C
S1131490622EA4CFA0960FB6F894DEBF0FBECDBFC8
S11314A0DF91CF911F910F91FF90EF90DF90CF903C
S11314B0BF90AF909F908F907F906F905F900895B2
S11314C05F926F927F928F929F92AF92BF92CF92D0
S11314D0DF92EF92FF920F931F93CF93DF936C01F0
S11314E0EB015A01FC0117821682512CF601E380AC
S11314F0FE01E3FC8591E3FE8191182FEF0188231F
S113150009F4E0C090E0F3D0892B19F0C60159DE4C
S1131510EDCF153241F4FE01E3FC1591E3FE119188
S1131520EF01153271F4C6010BD197FDC9C0412FEB
S113153050E09C01332724173507C1F2B6017AD154
S1131540C1C01A3239F4E3FC1591E3FE1191EF01A5
S113155001E001C000E0F12C20ED210F2A3078F4E5
S113156002606F2D70E080E090E040E203DEF62E32
S1131570FE01E3FC1591E3FE1191EF01EDCF01FFB4
S113158003C0F11003C09EC0FF24FA94183619F06A
S11315901C3651F010C0FE01E3FC1591E3FE1191DD
S11315A0EF01183641F408600460FE01E3FC159174
S11315B0E3FE1191EF01112309F484C0612F70E05F
S11315C082EA91E09CD0892B09F47CC000FD07C01D
S11315D0F50180809180C50102965C0102C0812CD6
S11315E0912C1E3649F4F6014681578160E070E083
S11315F0202FC401B3DD7ACF1336A1F401FD02C05C
S1131600FF24F394C6019CD097FD5AC08114910421
S113161029F0F4018083C40101964C01FA94F1107D
S1131620F1CF4AC01B3551F49E01A4016F2DC601B0
S113163068DEEC01892B09F03FC039C0C601C1DD69
S113164097FD3EC01F3649F128F4143621F11936AE
S113165039F125C0133771F01537E9F020C0811432
S1131660910429F0F4016082C40101964C01FA94BA
S1131670FF2059F0C60164D03C0197FD06C037D065
S1131680892B69F3B601C301D5D081149104A1F06B
S1131690F401108211C0006203C0006101C0006443
S11316A0202FA4016F2DC601A2DD811105C0F60112
S11316B08381807329F406C000FD18CF539416CF9C
S11316C0552019F0852D90E002C08FEF9FEFDF9138
S11316D0CF911F910F91FF90EF90DF90CF90BF902B
S11316E0AF909F908F907F906F905F90089591112D
S11316F018C1803219F089508550D0F70895FC0143
S11317000590061621F00020D9F7C00108953197FD
S1131710CF010895FC010590615070400110D8F785
S1131720809590958E0F9F1F0895FC016150704025
S113173001900110D8F7809590958E0F9F1F089502
S1131740CF93DF93EC012B8120FF33C026FF0AC027
S11317502F7B2B838E819F8101969F838E838A8129
S113176090E029C022FF0FC0E881F9818081082E12
S1131770000C990B009719F420622B831AC0319640
S1131780F983E8830EC0EA85FB85199597FF09C0A4
S11317902B81019611F080E201C080E1822B8B83C2
S11317A008C02E813F812F5F3F4F3F832E839927AF
S11317B002C08FEF9FEFDF91CF9108950F931F9396
S11317C0CF93DF93FB01238121FD03C08FEF9FEFB4
S11317D02CC022FF16C046815781248135814217CF
S11317E0530744F4A081B1819D012F5F3F4F3183A2
S11317F020838C93268137812F5F3F4F3783268345
S113180014C08B01EC01FB010084F185E02D1995D6
S1131810892BE1F6D80116968D919C911797019624
S113182017969C938E931697CE01DF91CF911F91BB
S11318300F910895FB01238120FF12C026FD10C0E3
S11318408F3F3FEF930761F082832F7D20642383D2
S113185026813781215031093783268399270895BA
S11318608FEF9FEF0895FA01AA27283051F1203114
S113187081F1E8946F936E7F6E5F7F4F8F4F9F4F20
S1131880AF4FB1E03ED0B4E03CD0670F781F891F62
S11318909A1FA11D680F791F8A1F911DA11D6A0F30
S11318A0711D811D911DA11D20D009F468943F91E3
S11318B02AE0269F11243019305D3193DEF6CF01E2
S11318C00895462F4770405D4193B3E00FD0C9F7A8
S11318D0F6CF462F4F70405D4A3318F0495D31FD15
S11318E04052419302D0A9F7EACFB4E0A695979568
S11318F0879577956795BA95C9F70097610571053E
S113190008959B01AC010A2E069457954795379587
S11319102795BA95C9F7620F731F841F951FA01DE1
S10F19200895992788270895F894FFCFB4
S113192C00000003000000001304510400000A50DE
S113193C6C6561736520656E7465723A00546573E9
S113194C74313A25630054657374323A256400008B
S9030000FC
